{
  "contractName": "LandRegistry",
  "abi": [
    {
      "inputs": [],
      "stateMutability": "nonpayable",
      "type": "constructor"
    },
    {
      "inputs": [
        {
          "internalType": "address",
          "name": "_id",
          "type": "address"
        },
        {
          "internalType": "string",
          "name": "_name",
          "type": "string"
        },
        {
          "internalType": "string",
          "name": "_nidNumber",
          "type": "string"
        },
        {
          "internalType": "string",
          "name": "email",
          "type": "string"
        }
      ],
      "name": "addBuyers",
      "outputs": [],
      "stateMutability": "nonpayable",
      "type": "function"
    },
    {
      "inputs": [],
      "name": "getBuyers",
      "outputs": [
        {
          "components": [
            {
              "internalType": "address",
              "name": "id",
              "type": "address"
            },
            {
              "internalType": "string",
              "name": "name",
              "type": "string"
            },
            {
              "internalType": "string",
              "name": "nidNumber",
              "type": "string"
            },
            {
              "internalType": "string",
              "name": "email",
              "type": "string"
            }
          ],
          "internalType": "struct LandRegistry.buyerReg[]",
          "name": "",
          "type": "tuple[]"
        }
      ],
      "stateMutability": "view",
      "type": "function",
      "constant": true
    },
    {
      "inputs": [
        {
          "internalType": "address",
          "name": "_id",
          "type": "address"
        },
        {
          "internalType": "string",
          "name": "_name",
          "type": "string"
        },
        {
          "internalType": "string",
          "name": "_nidNumber",
          "type": "string"
        },
        {
          "internalType": "string",
          "name": "email",
          "type": "string"
        }
      ],
      "name": "addSellers",
      "outputs": [],
      "stateMutability": "nonpayable",
      "type": "function"
    },
    {
      "inputs": [],
      "name": "getSellers",
      "outputs": [
        {
          "components": [
            {
              "internalType": "address",
              "name": "id",
              "type": "address"
            },
            {
              "internalType": "string",
              "name": "name",
              "type": "string"
            },
            {
              "internalType": "string",
              "name": "nidNumber",
              "type": "string"
            },
            {
              "internalType": "string",
              "name": "email",
              "type": "string"
            }
          ],
          "internalType": "struct LandRegistry.sellerReg[]",
          "name": "",
          "type": "tuple[]"
        }
      ],
      "stateMutability": "view",
      "type": "function",
      "constant": true
    },
    {
      "inputs": [
        {
          "internalType": "address",
          "name": "_userAccount",
          "type": "address"
        }
      ],
      "name": "getSingleBuyer",
      "outputs": [
        {
          "components": [
            {
              "internalType": "address",
              "name": "id",
              "type": "address"
            },
            {
              "internalType": "string",
              "name": "name",
              "type": "string"
            },
            {
              "internalType": "string",
              "name": "nidNumber",
              "type": "string"
            },
            {
              "internalType": "string",
              "name": "email",
              "type": "string"
            }
          ],
          "internalType": "struct LandRegistry.buyerReg",
          "name": "",
          "type": "tuple"
        }
      ],
      "stateMutability": "view",
      "type": "function",
      "constant": true
    },
    {
      "inputs": [
        {
          "internalType": "address",
          "name": "_id",
          "type": "address"
        },
        {
          "internalType": "string",
          "name": "_city",
          "type": "string"
        },
        {
          "internalType": "uint256",
          "name": "_area",
          "type": "uint256"
        },
        {
          "internalType": "uint256",
          "name": "_price",
          "type": "uint256"
        },
        {
          "internalType": "uint256",
          "name": "_property",
          "type": "uint256"
        }
      ],
      "name": "addlandDetails",
      "outputs": [],
      "stateMutability": "nonpayable",
      "type": "function"
    },
    {
      "inputs": [],
      "name": "getLandDetails",
      "outputs": [
        {
          "components": [
            {
              "internalType": "address",
              "name": "id",
              "type": "address"
            },
            {
              "internalType": "string",
              "name": "city",
              "type": "string"
            },
            {
              "internalType": "uint256",
              "name": "area",
              "type": "uint256"
            },
            {
              "internalType": "uint256",
              "name": "price",
              "type": "uint256"
            },
            {
              "internalType": "uint256",
              "name": "property",
              "type": "uint256"
            }
          ],
          "internalType": "struct LandRegistry.landInfo[]",
          "name": "",
          "type": "tuple[]"
        }
      ],
      "stateMutability": "view",
      "type": "function",
      "constant": true
    },
    {
      "inputs": [
        {
          "internalType": "address",
          "name": "_id1",
          "type": "address"
        },
        {
          "internalType": "address",
          "name": "_id2",
          "type": "address"
        },
        {
          "internalType": "string",
          "name": "_city",
          "type": "string"
        },
        {
          "internalType": "uint256",
          "name": "_area",
          "type": "uint256"
        },
        {
          "internalType": "uint256",
          "name": "_price",
          "type": "uint256"
        }
      ],
      "name": "buyland",
      "outputs": [],
      "stateMutability": "nonpayable",
      "type": "function"
    },
    {
      "inputs": [],
      "name": "buyLandD",
      "outputs": [
        {
          "components": [
            {
              "internalType": "address",
              "name": "buyer",
              "type": "address"
            },
            {
              "internalType": "address",
              "name": "seller",
              "type": "address"
            },
            {
              "internalType": "string",
              "name": "city",
              "type": "string"
            },
            {
              "internalType": "uint256",
              "name": "area",
              "type": "uint256"
            },
            {
              "internalType": "uint256",
              "name": "price",
              "type": "uint256"
            }
          ],
          "internalType": "struct LandRegistry.buyLand[]",
          "name": "",
          "type": "tuple[]"
        }
      ],
      "stateMutability": "view",
      "type": "function",
      "constant": true
    }
  ],
  "bytecode": "0x608060405234801561001057600080fd5b50336000806101000a81548173ffffffffffffffffffffffffffffffffffffffff021916908373ffffffffffffffffffffffffffffffffffffffff160217905550611fd9806100606000396000f3fe608060405234801561001057600080fd5b50600436106100935760003560e01c80637ee454cb116100665780637ee454cb1461011c57806396ee5cc51461013a578063ce8422b414610158578063d85ecd0e14610176578063f64bfaba1461019257610093565b80632076a9261461009857806343f9c966146100c857806346b1a809146100e457806369f9eb3e14610100575b600080fd5b6100b260048036038101906100ad9190611182565b6101b0565b6040516100bf91906112bf565b60405180910390f35b6100e260048036038101906100dd9190611416565b6104d5565b005b6100fe60048036038101906100f99190611507565b6105c8565b005b61011a60048036038101906101159190611416565b6106b4565b005b6101246107a7565b60405161013191906116d1565b60405180910390f35b610142610a12565b60405161014f919061183a565b60405180910390f35b610160610bc3565b60405161016d9190611994565b60405180910390f35b610190600480360381019061018b91906119b6565b610d28565b005b61019a610e67565b6040516101a79190611b80565b60405180910390f35b6101b86110d2565b60005b600180549050811015610494578273ffffffffffffffffffffffffffffffffffffffff16600182815481106101f3576101f2611ba2565b5b906000526020600020906004020160000160009054906101000a900473ffffffffffffffffffffffffffffffffffffffff1673ffffffffffffffffffffffffffffffffffffffff1603610481576001818154811061025457610253611ba2565b5b90600052602060002090600402016040518060800160405290816000820160009054906101000a900473ffffffffffffffffffffffffffffffffffffffff1673ffffffffffffffffffffffffffffffffffffffff1673ffffffffffffffffffffffffffffffffffffffff1681526020016001820180546102d390611c00565b80601f01602080910402602001604051908101604052809291908181526020018280546102ff90611c00565b801561034c5780601f106103215761010080835404028352916020019161034c565b820191906000526020600020905b81548152906001019060200180831161032f57829003601f168201915b5050505050815260200160028201805461036590611c00565b80601f016020809104026020016040519081016040528092919081815260200182805461039190611c00565b80156103de5780601f106103b3576101008083540402835291602001916103de565b820191906000526020600020905b8154815290600101906020018083116103c157829003601f168201915b505050505081526020016003820180546103f790611c00565b80601f016020809104026020016040519081016040528092919081815260200182805461042390611c00565b80156104705780601f1061044557610100808354040283529160200191610470565b820191906000526020600020905b81548152906001019060200180831161045357829003601f168201915b5050505050815250509150506104d0565b808061048c90611c60565b9150506101bb565b506040517f08c379a00000000000000000000000000000000000000000000000000000000081526004016104c790611d05565b60405180910390fd5b919050565b600160405180608001604052808673ffffffffffffffffffffffffffffffffffffffff16815260200185815260200184815260200183815250908060018154018082558091505060019003906000526020600020906004020160009091909190915060008201518160000160006101000a81548173ffffffffffffffffffffffffffffffffffffffff021916908373ffffffffffffffffffffffffffffffffffffffff16021790555060208201518160010190816105939190611ed1565b5060408201518160020190816105a99190611ed1565b5060608201518160030190816105bf9190611ed1565b50505050505050565b60036040518060a001604052808773ffffffffffffffffffffffffffffffffffffffff16815260200186815260200185815260200184815260200183815250908060018154018082558091505060019003906000526020600020906005020160009091909190915060008201518160000160006101000a81548173ffffffffffffffffffffffffffffffffffffffff021916908373ffffffffffffffffffffffffffffffffffffffff160217905550602082015181600101908161068c9190611ed1565b5060408201518160020155606082015181600301556080820151816004015550505050505050565b600260405180608001604052808673ffffffffffffffffffffffffffffffffffffffff16815260200185815260200184815260200183815250908060018154018082558091505060019003906000526020600020906004020160009091909190915060008201518160000160006101000a81548173ffffffffffffffffffffffffffffffffffffffff021916908373ffffffffffffffffffffffffffffffffffffffff16021790555060208201518160010190816107729190611ed1565b5060408201518160020190816107889190611ed1565b50606082015181600301908161079e9190611ed1565b50505050505050565b60606002805480602002602001604051908101604052809291908181526020016000905b82821015610a0957838290600052602060002090600402016040518060800160405290816000820160009054906101000a900473ffffffffffffffffffffffffffffffffffffffff1673ffffffffffffffffffffffffffffffffffffffff1673ffffffffffffffffffffffffffffffffffffffff16815260200160018201805461085490611c00565b80601f016020809104026020016040519081016040528092919081815260200182805461088090611c00565b80156108cd5780601f106108a2576101008083540402835291602001916108cd565b820191906000526020600020905b8154815290600101906020018083116108b057829003601f168201915b505050505081526020016002820180546108e690611c00565b80601f016020809104026020016040519081016040528092919081815260200182805461091290611c00565b801561095f5780601f106109345761010080835404028352916020019161095f565b820191906000526020600020905b81548152906001019060200180831161094257829003601f168201915b5050505050815260200160038201805461097890611c00565b80601f01602080910402602001604051908101604052809291908181526020018280546109a490611c00565b80156109f15780601f106109c6576101008083540402835291602001916109f1565b820191906000526020600020905b8154815290600101906020018083116109d457829003601f168201915b505050505081525050815260200190600101906107cb565b50505050905090565b60606004805480602002602001604051908101604052809291908181526020016000905b82821015610bba57838290600052602060002090600502016040518060a00160405290816000820160009054906101000a900473ffffffffffffffffffffffffffffffffffffffff1673ffffffffffffffffffffffffffffffffffffffff1673ffffffffffffffffffffffffffffffffffffffff1681526020016001820160009054906101000a900473ffffffffffffffffffffffffffffffffffffffff1673ffffffffffffffffffffffffffffffffffffffff1673ffffffffffffffffffffffffffffffffffffffff168152602001600282018054610b1590611c00565b80601f0160208091040260200160405190810160405280929190818152602001828054610b4190611c00565b8015610b8e5780601f10610b6357610100808354040283529160200191610b8e565b820191906000526020600020905b815481529060010190602001808311610b7157829003601f168201915b505050505081526020016003820154815260200160048201548152505081526020019060010190610a36565b50505050905090565b60606003805480602002602001604051908101604052809291908181526020016000905b82821015610d1f57838290600052602060002090600502016040518060a00160405290816000820160009054906101000a900473ffffffffffffffffffffffffffffffffffffffff1673ffffffffffffffffffffffffffffffffffffffff1673ffffffffffffffffffffffffffffffffffffffff168152602001600182018054610c7090611c00565b80601f0160208091040260200160405190810160405280929190818152602001828054610c9c90611c00565b8015610ce95780601f10610cbe57610100808354040283529160200191610ce9565b820191906000526020600020905b815481529060010190602001808311610ccc57829003601f168201915b50505050508152602001600282015481526020016003820154815260200160048201548152505081526020019060010190610be7565b50505050905090565b60046040518060a001604052808773ffffffffffffffffffffffffffffffffffffffff1681526020018673ffffffffffffffffffffffffffffffffffffffff16815260200185815260200184815260200183815250908060018154018082558091505060019003906000526020600020906005020160009091909190915060008201518160000160006101000a81548173ffffffffffffffffffffffffffffffffffffffff021916908373ffffffffffffffffffffffffffffffffffffffff16021790555060208201518160010160006101000a81548173ffffffffffffffffffffffffffffffffffffffff021916908373ffffffffffffffffffffffffffffffffffffffff1602179055506040820151816002019081610e499190611ed1565b50606082015181600301556080820151816004015550505050505050565b60606001805480602002602001604051908101604052809291908181526020016000905b828210156110c957838290600052602060002090600402016040518060800160405290816000820160009054906101000a900473ffffffffffffffffffffffffffffffffffffffff1673ffffffffffffffffffffffffffffffffffffffff1673ffffffffffffffffffffffffffffffffffffffff168152602001600182018054610f1490611c00565b80601f0160208091040260200160405190810160405280929190818152602001828054610f4090611c00565b8015610f8d5780601f10610f6257610100808354040283529160200191610f8d565b820191906000526020600020905b815481529060010190602001808311610f7057829003601f168201915b50505050508152602001600282018054610fa690611c00565b80601f0160208091040260200160405190810160405280929190818152602001828054610fd290611c00565b801561101f5780601f10610ff45761010080835404028352916020019161101f565b820191906000526020600020905b81548152906001019060200180831161100257829003601f168201915b5050505050815260200160038201805461103890611c00565b80601f016020809104026020016040519081016040528092919081815260200182805461106490611c00565b80156110b15780601f10611086576101008083540402835291602001916110b1565b820191906000526020600020905b81548152906001019060200180831161109457829003601f168201915b50505050508152505081526020019060010190610e8b565b50505050905090565b6040518060800160405280600073ffffffffffffffffffffffffffffffffffffffff1681526020016060815260200160608152602001606081525090565b6000604051905090565b600080fd5b600080fd5b600073ffffffffffffffffffffffffffffffffffffffff82169050919050565b600061114f82611124565b9050919050565b61115f81611144565b811461116a57600080fd5b50565b60008135905061117c81611156565b92915050565b6000602082840312156111985761119761111a565b5b60006111a68482850161116d565b91505092915050565b6111b881611144565b82525050565b600081519050919050565b600082825260208201905092915050565b60005b838110156111f85780820151818401526020810190506111dd565b60008484015250505050565b6000601f19601f8301169050919050565b6000611220826111be565b61122a81856111c9565b935061123a8185602086016111da565b61124381611204565b840191505092915050565b600060808301600083015161126660008601826111af565b506020830151848203602086015261127e8282611215565b915050604083015184820360408601526112988282611215565b915050606083015184820360608601526112b28282611215565b9150508091505092915050565b600060208201905081810360008301526112d9818461124e565b905092915050565b600080fd5b600080fd5b7f4e487b7100000000000000000000000000000000000000000000000000000000600052604160045260246000fd5b61132382611204565b810181811067ffffffffffffffff82111715611342576113416112eb565b5b80604052505050565b6000611355611110565b9050611361828261131a565b919050565b600067ffffffffffffffff821115611381576113806112eb565b5b61138a82611204565b9050602081019050919050565b82818337600083830152505050565b60006113b96113b484611366565b61134b565b9050828152602081018484840111156113d5576113d46112e6565b5b6113e0848285611397565b509392505050565b600082601f8301126113fd576113fc6112e1565b5b813561140d8482602086016113a6565b91505092915050565b600080600080608085870312156114305761142f61111a565b5b600061143e8782880161116d565b945050602085013567ffffffffffffffff81111561145f5761145e61111f565b5b61146b878288016113e8565b935050604085013567ffffffffffffffff81111561148c5761148b61111f565b5b611498878288016113e8565b925050606085013567ffffffffffffffff8111156114b9576114b861111f565b5b6114c5878288016113e8565b91505092959194509250565b6000819050919050565b6114e4816114d1565b81146114ef57600080fd5b50565b600081359050611501816114db565b92915050565b600080600080600060a086880312156115235761152261111a565b5b60006115318882890161116d565b955050602086013567ffffffffffffffff8111156115525761155161111f565b5b61155e888289016113e8565b945050604061156f888289016114f2565b9350506060611580888289016114f2565b9250506080611591888289016114f2565b9150509295509295909350565b600081519050919050565b600082825260208201905092915050565b6000819050602082019050919050565b60006080830160008301516115e260008601826111af565b50602083015184820360208601526115fa8282611215565b915050604083015184820360408601526116148282611215565b9150506060830151848203606086015261162e8282611215565b9150508091505092915050565b600061164783836115ca565b905092915050565b6000602082019050919050565b60006116678261159e565b61167181856115a9565b935083602082028501611683856115ba565b8060005b858110156116bf57848403895281516116a0858261163b565b94506116ab8361164f565b925060208a01995050600181019050611687565b50829750879550505050505092915050565b600060208201905081810360008301526116eb818461165c565b905092915050565b600081519050919050565b600082825260208201905092915050565b6000819050602082019050919050565b611728816114d1565b82525050565b600060a08301600083015161174660008601826111af565b50602083015161175960208601826111af565b50604083015184820360408601526117718282611215565b9150506060830151611786606086018261171f565b506080830151611799608086018261171f565b508091505092915050565b60006117b0838361172e565b905092915050565b6000602082019050919050565b60006117d0826116f3565b6117da81856116fe565b9350836020820285016117ec8561170f565b8060005b85811015611828578484038952815161180985826117a4565b9450611814836117b8565b925060208a019950506001810190506117f0565b50829750879550505050505092915050565b6000602082019050818103600083015261185481846117c5565b905092915050565b600081519050919050565b600082825260208201905092915050565b6000819050602082019050919050565b600060a0830160008301516118a060008601826111af565b50602083015184820360208601526118b88282611215565b91505060408301516118cd604086018261171f565b5060608301516118e0606086018261171f565b5060808301516118f3608086018261171f565b508091505092915050565b600061190a8383611888565b905092915050565b6000602082019050919050565b600061192a8261185c565b6119348185611867565b93508360208202850161194685611878565b8060005b85811015611982578484038952815161196385826118fe565b945061196e83611912565b925060208a0199505060018101905061194a565b50829750879550505050505092915050565b600060208201905081810360008301526119ae818461191f565b905092915050565b600080600080600060a086880312156119d2576119d161111a565b5b60006119e08882890161116d565b95505060206119f18882890161116d565b945050604086013567ffffffffffffffff811115611a1257611a1161111f565b5b611a1e888289016113e8565b9350506060611a2f888289016114f2565b9250506080611a40888289016114f2565b9150509295509295909350565b600081519050919050565b600082825260208201905092915050565b6000819050602082019050919050565b6000608083016000830151611a9160008601826111af565b5060208301518482036020860152611aa98282611215565b91505060408301518482036040860152611ac38282611215565b91505060608301518482036060860152611add8282611215565b9150508091505092915050565b6000611af68383611a79565b905092915050565b6000602082019050919050565b6000611b1682611a4d565b611b208185611a58565b935083602082028501611b3285611a69565b8060005b85811015611b6e5784840389528151611b4f8582611aea565b9450611b5a83611afe565b925060208a01995050600181019050611b36565b50829750879550505050505092915050565b60006020820190508181036000830152611b9a8184611b0b565b905092915050565b7f4e487b7100000000000000000000000000000000000000000000000000000000600052603260045260246000fd5b7f4e487b7100000000000000000000000000000000000000000000000000000000600052602260045260246000fd5b60006002820490506001821680611c1857607f821691505b602082108103611c2b57611c2a611bd1565b5b50919050565b7f4e487b7100000000000000000000000000000000000000000000000000000000600052601160045260246000fd5b6000611c6b826114d1565b91507fffffffffffffffffffffffffffffffffffffffffffffffffffffffffffffffff8203611c9d57611c9c611c31565b5b600182019050919050565b600082825260208201905092915050565b7f537472756374206e6f7420666f756e6400000000000000000000000000000000600082015250565b6000611cef601083611ca8565b9150611cfa82611cb9565b602082019050919050565b60006020820190508181036000830152611d1e81611ce2565b9050919050565b60008190508160005260206000209050919050565b60006020601f8301049050919050565b600082821b905092915050565b600060088302611d877fffffffffffffffffffffffffffffffffffffffffffffffffffffffffffffffff82611d4a565b611d918683611d4a565b95508019841693508086168417925050509392505050565b6000819050919050565b6000611dce611dc9611dc4846114d1565b611da9565b6114d1565b9050919050565b6000819050919050565b611de883611db3565b611dfc611df482611dd5565b848454611d57565b825550505050565b600090565b611e11611e04565b611e1c818484611ddf565b505050565b5b81811015611e4057611e35600082611e09565b600181019050611e22565b5050565b601f821115611e8557611e5681611d25565b611e5f84611d3a565b81016020851015611e6e578190505b611e82611e7a85611d3a565b830182611e21565b50505b505050565b600082821c905092915050565b6000611ea860001984600802611e8a565b1980831691505092915050565b6000611ec18383611e97565b9150826002028217905092915050565b611eda826111be565b67ffffffffffffffff811115611ef357611ef26112eb565b5b611efd8254611c00565b611f08828285611e44565b600060209050601f831160018114611f3b5760008415611f29578287015190505b611f338582611eb5565b865550611f9b565b601f198416611f4986611d25565b60005b82811015611f7157848901518255600182019150602085019450602081019050611f4c565b86831015611f8e5784890151611f8a601f891682611e97565b8355505b6001600288020188555050505b50505050505056fea2646970667358221220df1ec0a448872f93a110c62f09b27f622b9edcabafac54ea17f09c1a0508ecdf64736f6c63430008110033",
  "immutableReferences": {},
  "source": "//SPDX-License-Identifier: Unlicense\npragma solidity >=0.5.0 <0.9.0;\n\ncontract LandRegistry{\n    address payable owner;\n    struct buyerReg{\n        address id;\n        string name;\n        string nidNumber;\n        string email;\n    }\n\n    struct sellerReg{\n        address id;\n        string name;\n        string nidNumber;\n        string email;\n    }\n\n    struct landInfo{\n        address id;\n        string city;\n        uint area;\n        uint price;\n        uint property;\n    }\n\n    struct buyLand{\n        address buyer;\n        address seller;\n        string city;\n        uint area;\n        uint price;\n    }\n\n\n    constructor() {\n     owner = payable(msg.sender);\n    }\n buyerReg[] buyers;\n sellerReg[] sellers;\n landInfo[] landDetails;\n buyLand[] buyLandDetails;\n \n function addBuyers(address _id, string memory _name, string memory _nidNumber, string memory email) external{\n     buyers.push(buyerReg(_id, _name, _nidNumber, email));\n }\n function getBuyers() public view returns(buyerReg[] memory){\n     return buyers;\n }\n \n function addSellers(address _id, string memory _name, string memory _nidNumber, string memory email) external{\n     sellers.push(sellerReg(_id, _name, _nidNumber, email));\n }\n function getSellers() public view returns(sellerReg[] memory){\n     return sellers;\n }\n\n function getSingleBuyer(address _userAccount) public view returns(buyerReg memory){\n     for(uint i=0; i<buyers.length; i++){\n         if(buyers[i].id == _userAccount){\n             return buyers[i];\n         }\n     }\n    revert(\"Struct not found\");\n }\n\n function addlandDetails(address _id, string memory _city, uint _area, uint _price, uint _property) external{\n     landDetails.push(landInfo(_id, _city, _area, _price, _property));\n }\n\n function getLandDetails() public view returns(landInfo[] memory){\n     return landDetails;\n }\n\n function buyland(address _id1,address _id2, string memory _city, uint _area, uint _price) external{\n     buyLandDetails.push(buyLand(_id1,_id2, _city, _area, _price));\n }\n\n function buyLandD() public view returns(buyLand[] memory){\n     return buyLandDetails;\n }\n\n}",
  "sourcePath": "/Users/macbook/Documents/blockchain/contracts/LandRegistry.sol",
  "compiler": {
    "name": "solc",
    "version": "0.8.17+commit.8df45f5f.Emscripten.clang"
  },
  "schemaVersion": "3.4.13",
  "updatedAt": "2023-03-13T10:38:42.292Z",
  "networkType": "ethereum",
  "devdoc": {
    "kind": "dev",
    "methods": {},
    "version": 1
  },
  "userdoc": {
    "kind": "user",
    "methods": {},
    "version": 1
  }
}